{
"_format": "hh-sol-artifact-1",
"contractName": "TheGame",
"sourceName": "contracts/game.sol",
"abi": [
{
"inputs": [
{
"internalType": "string[]",
"name": "characterNames",
"type": "string[]"
},
{
"internalType": "string[]",
"name": "characterImageURIs",
"type": "string[]"
},
{
"internalType": "uint256[]",
"name": "characterHp",
"type": "uint256[]"
},
{
"internalType": "uint256[]",
"name": "characterAttackDmg",
"type": "uint256[]"
},
{
"internalType": "uint256[]",
"name": "characterDefensePts",
"type": "uint256[]"
},
{
"internalType": "string",
"name": "bossName",
"type": "string"
},
{
"internalType": "string",
"name": "bossImageURI",
"type": "string"
},
{
"internalType": "uint256",
"name": "bossHp",
"type": "uint256"
},
{
"internalType": "uint256",
"name": "bossAttackDamage",
"type": "uint256"
},
{
"internalType": "uint256",
"name": "bossDefensePoints",
"type": "uint256"
}
],
"stateMutability": "nonpayable",
"type": "constructor"
},
{
"anonymous": false,
"inputs": [
{
"indexed": true,
"internalType": "address",
"name": "owner",
"type": "address"
},
{
"indexed": true,
"internalType": "address",
"name": "approved",
"type": "address"
},
{
"indexed": true,
"internalType": "uint256",
"name": "tokenId",
"type": "uint256"
}
],
"name": "Approval",
"type": "event"
},
{
"anonymous": false,
"inputs": [
{
"indexed": true,
"internalType": "address",
"name": "owner",
"type": "address"
},
{
"indexed": true,
"internalType": "address",
"name": "operator",
"type": "address"
},
{
"indexed": false,
"internalType": "bool",
"name": "approved",
"type": "bool"
}
],
"name": "ApprovalForAll",
"type": "event"
},
{
"anonymous": false,
"inputs": [
{
"indexed": false,
"internalType": "address",
"name": "sender",
"type": "address"
},
{
"indexed": false,
"internalType": "uint256",
"name": "newBossHp",
"type": "uint256"
},
{
"indexed": false,
"internalType": "uint256",
"name": "newPlayerHp",
"type": "uint256"
}
],
"name": "AttackComplete",
"type": "event"
},
{
"anonymous": false,
"inputs": [
{
"indexed": false,
"internalType": "address",
"name": "sender",
"type": "address"
},
{
"indexed": false,
"internalType": "uint256",
"name": "tokenId",
"type": "uint256"
},
{
"indexed": false,
"internalType": "uint256",
"name": "characterIndex",
"type": "uint256"
}
],
"name": "CharacterNFTMinted",
"type": "event"
},
{
"anonymous": false,
"inputs": [
{
"indexed": true,
"internalType": "address",
"name": "from",
"type": "address"
},
{
"indexed": true,
"internalType": "address",
"name": "to",
"type": "address"
},
{
"indexed": true,
"internalType": "uint256",
"name": "tokenId",
"type": "uint256"
}
],
"name": "Transfer",
"type": "event"
},
{
"inputs": [
{
"internalType": "address",
"name": "to",
"type": "address"
},
{
"internalType": "uint256",
"name": "tokenId",
"type": "uint256"
}
],
"name": "approve",
"outputs": [],
"stateMutability": "nonpayable",
"type": "function"
},
{
"inputs": [],
"name": "attackBoss",
"outputs": [],
"stateMutability": "nonpayable",
"type": "function"
},
{
"inputs": [
{
"internalType": "address",
"name": "owner",
"type": "address"
}
],
"name": "balanceOf",
"outputs": [
{
"internalType": "uint256",
"name": "",
"type": "uint256"
}
],
"stateMutability": "view",
"type": "function"
},
{
"inputs": [],
"name": "bigBoss",
"outputs": [
{
"internalType": "string",
"name": "name",
"type": "string"
},
{
"internalType": "string",
"name": "imageURI",
"type": "string"
},
{
"internalType": "uint256",
"name": "hp",
"type": "uint256"
},
{
"internalType": "uint256",
"name": "maxHp",
"type": "uint256"
},
{
"internalType": "uint256",
"name": "attackDamage",
"type": "uint256"
},
{
"internalType": "uint256",
"name": "defensePoints",
"type": "uint256"
}
],
"stateMutability": "view",
"type": "function"
},
{
"inputs": [],
"name": "checkNFT",
"outputs": [
{
"components": [
{
"internalType": "uint256",
"name": "characterIndex",
"type": "uint256"
},
{
"internalType": "string",
"name": "name",
"type": "string"
},
{
"internalType": "string",
"name": "imageURI",
"type": "string"
},
{
"internalType": "uint256",
"name": "hp",
"type": "uint256"
},
{
"internalType": "uint256",
"name": "maxHp",
"type": "uint256"
},
{
"internalType": "uint256",
"name": "attackDamage",
"type": "uint256"
},
{
"internalType": "uint256",
"name": "defensePoints",
"type": "uint256"
}
],
"internalType": "struct TheGame.CharacterAttributes",
"name": "",
"type": "tuple"
}
],
"stateMutability": "view",
"type": "function"
},
{
"inputs": [],
"name": "getAllDefaultCharacters",
"outputs": [
{
"components": [
{
"internalType": "uint256",
"name": "characterIndex",
"type": "uint256"
},
{
"internalType": "string",
"name": "name",
"type": "string"
},
{
"internalType": "string",
"name": "imageURI",
"type": "string"
},
{
"internalType": "uint256",
"name": "hp",
"type": "uint256"
},
{
"internalType": "uint256",
"name": "maxHp",
"type": "uint256"
},
{
"internalType": "uint256",
"name": "attackDamage",
"type": "uint256"
},
{
"internalType": "uint256",
"name": "defensePoints",
"type": "uint256"
}
],
"internalType": "struct TheGame.CharacterAttributes[]",
"name": "",
"type": "tuple[]"
}
],
"stateMutability": "view",
"type": "function"
},
{
"inputs": [
{
"internalType": "uint256",
"name": "tokenId",
"type": "uint256"
}
],
"name": "getApproved",
"outputs": [
{
"internalType": "address",
"name": "",
"type": "address"
}
],
"stateMutability": "view",
"type": "function"
},
{
"inputs": [],
"name": "getBigBoss",
"outputs": [
{
"components": [
{
"internalType": "string",
"name": "name",
"type": "string"
},
{
"internalType": "string",
"name": "imageURI",
"type": "string"
},
{
"internalType": "uint256",
"name": "hp",
"type": "uint256"
},
{
"internalType": "uint256",
"name": "maxHp",
"type": "uint256"
},
{
"internalType": "uint256",
"name": "attackDamage",
"type": "uint256"
},
{
"internalType": "uint256",
"name": "defensePoints",
"type": "uint256"
}
],
"internalType": "struct TheGame.BigBoss",
"name": "",
"type": "tuple"
}
],
"stateMutability": "view",
"type": "function"
},
{
"inputs": [
{
"internalType": "address",
"name": "owner",
"type": "address"
},
{
"internalType": "address",
"name": "operator",
"type": "address"
}
],
"name": "isApprovedForAll",
"outputs": [
{
"internalType": "bool",
"name": "",
"type": "bool"
}
],
"stateMutability": "view",
"type": "function"
},
{
"inputs": [
{
"internalType": "uint256",
"name": "_characterIndex",
"type": "uint256"
}
],
"name": "mintCharacterNFT",
"outputs": [],
"stateMutability": "nonpayable",
"type": "function"
},
{
"inputs": [],
"name": "name",
"outputs": [
{
"internalType": "string",
"name": "",
"type": "string"
}
],
"stateMutability": "view",
"type": "function"
},
{
"inputs": [
{
"internalType": "uint256",
"name": "",
"type": "uint256"
}
],
"name": "nftHolderAttributes",
"outputs": [
{
"internalType": "uint256",
"name": "characterIndex",
"type": "uint256"
},
{
"internalType": "string",
"name": "name",
"type": "string"
},
{
"internalType": "string",
"name": "imageURI",
"type": "string"
},
{
"internalType": "uint256",
"name": "hp",
"type": "uint256"
},
{
"internalType": "uint256",
"name": "maxHp",
"type": "uint256"
},
{
"internalType": "uint256",
"name": "attackDamage",
"type": "uint256"
},
{
"internalType": "uint256",
"name": "defensePoints",
"type": "uint256"
}
],
"stateMutability": "view",
"type": "function"
},
{
"inputs": [
{
"internalType": "address",
"name": "",
"type": "address"
}
],
"name": "nftHolders",
"outputs": [
{
"internalType": "uint256",
"name": "",
"type": "uint256"
}
],
"stateMutability": "view",
"type": "function"
},
{
"inputs": [
{
"internalType": "uint256",
"name": "tokenId",
"type": "uint256"
}
],
"name": "ownerOf",
"outputs": [
{
"internalType": "address",
"name": "",
"type": "address"
}
],
"stateMutability": "view",
"type": "function"
},
{
"inputs": [
{
"internalType": "address",
"name": "from",
"type": "address"
},
{
"internalType": "address",
"name": "to",
"type": "address"
},
{
"internalType": "uint256",
"name": "tokenId",
"type": "uint256"
}
],
"name": "safeTransferFrom",
"outputs": [],
"stateMutability": "nonpayable",
"type": "function"
},
{
"inputs": [
{
"internalType": "address",
"name": "from",
"type": "address"
},
{
"internalType": "address",
"name": "to",
"type": "address"
},
{
"internalType": "uint256",
"name": "tokenId",
"type": "uint256"
},
{
"internalType": "bytes",
"name": "data",
"type": "bytes"
}
],
"name": "safeTransferFrom",
"outputs": [],
"stateMutability": "nonpayable",
"type": "function"
},
{
"inputs": [
{
"internalType": "address",
"name": "operator",
"type": "address"
},
{
"internalType": "bool",
"name": "approved",
"type": "bool"
}
],
"name": "setApprovalForAll",
"outputs": [],
"stateMutability": "nonpayable",
"type": "function"
},
{
"inputs": [
{
"internalType": "bytes4",
"name": "interfaceId",
"type": "bytes4"
}
],
"name": "supportsInterface",
"outputs": [
{
"internalType": "bool",
"name": "",
"type": "bool"
}
],
"stateMutability": "view",
"type": "function"
},
{
"inputs": [],
"name": "symbol",
"outputs": [
{
"internalType": "string",
"name": "",
"type": "string"
}
],
"stateMutability": "view",
"type": "function"
},
{
"inputs": [
{
"internalType": "uint256",
"name": "_tokenId",
"type": "uint256"
}
],
"name": "tokenURI",
"outputs": [
{
"internalType": "string",
"name": "",
"type": "string"
}
],
"stateMutability": "view",
"type": "function"
},
{
"inputs": [
{
"internalType": "address",
"name": "from",
"type": "address"
},
{
"internalType": "address",
"name": "to",
"type": "address"
},
{
"internalType": "uint256",
"name": "tokenId",
"type": "uint256"
}
],
"name": "transferFrom",
"outputs": [],
"stateMutability": "nonpayable",
"type": "function"
}
],
"bytecode": "0x60806040523480156200001157600080fd5b5060405162005ac738038062005ac7833981810160405281019062000037919062000af2565b6040518060400160405280600681526020017f4865726f657300000000000000000000000000000000000000000000000000008152506040518060400160405280600481526020017f4845524f000000000000000000000000000000000000000000000000000000008152508160009080519060200190620000bb9291906200085a565b508060019080519060200190620000d49291906200085a565b5050506040518060c0016040528086815260200185815260200184815260200184815260200183815260200182815250600a6000820151816000019080519060200190620001249291906200085a565b506020820151816001019080519060200190620001439291906200085a565b5060408201518160020155606082015181600301556080820151816004015560a08201518160050155905050620002d06040518060600160405280602a815260200162005a9d602a9139600a60000180546200019f9062000ebb565b80601f0160208091040260200160405190810160405280929190818152602001828054620001cd9062000ebb565b80156200021e5780601f10620001f2576101008083540402835291602001916200021e565b820191906000526020600020905b8154815290600101906020018083116200020057829003601f168201915b5050505050600a60020154600a60010180546200023b9062000ebb565b80601f0160208091040260200160405190810160405280929190818152602001828054620002699062000ebb565b8015620002ba5780601f106200028e57610100808354040283529160200191620002ba565b820191906000526020600020905b8154815290600101906020018083116200029c57829003601f168201915b50505050506200076f60201b62001d241760201c565b60005b8a51811015620007475760076040518060e001604052808381526020018d84815181106200032a577f4e487b7100000000000000000000000000000000000000000000000000000000600052603260045260246000fd5b602002602001015181526020018c848151811062000371577f4e487b7100000000000000000000000000000000000000000000000000000000600052603260045260246000fd5b602002602001015181526020018b8481518110620003b8577f4e487b7100000000000000000000000000000000000000000000000000000000600052603260045260246000fd5b602002602001015181526020018b8481518110620003ff577f4e487b7100000000000000000000000000000000000000000000000000000000600052603260045260246000fd5b602002602001015181526020018a848151811062000446577f4e487b7100000000000000000000000000000000000000000000000000000000600052603260045260246000fd5b602002602001015181526020018984815181106200048d577f4e487b7100000000000000000000000000000000000000000000000000000000600052603260045260246000fd5b60200260200101518152509080600181540180825580915050600190039060005260206000209060070201600090919091909150600082015181600001556020820151816001019080519060200190620004e99291906200085a565b506040820151816002019080519060200190620005089291906200085a565b50606082015181600301556080820151816004015560a0820151816005015560c08201518160060155505060006007828154811062000570577f4e487b7100000000000000000000000000000000000000000000000000000000600052603260045260246000fd5b90600052602060002090600702016040518060e001604052908160008201548152602001600182018054620005a59062000ebb565b80601f0160208091040260200160405190810160405280929190818152602001828054620005d39062000ebb565b8015620006245780601f10620005f85761010080835404028352916020019162000624565b820191906000526020600020905b8154815290600101906020018083116200060657829003601f168201915b505050505081526020016002820180546200063f9062000ebb565b80601f01602080910402602001604051908101604052809291908181526020018280546200066d9062000ebb565b8015620006be5780601f106200069257610100808354040283529160200191620006be565b820191906000526020600020905b815481529060010190602001808311620006a057829003601f168201915b5050505050815260200160038201548152602001600482015481526020016005820154815260200160068201548152505090506200072f60405180606001604052806025815260200162005a78602591398260200151836060015184604001516200076f60201b62001d241760201c565b506001816200073f919062000e1e565b9050620002d3565b506200075f60066200081b60201b62001dc61760201c565b5050505050505050505062000fdf565b62000815848484846040516024016200078c949392919062000ce3565b6040516020818303038152906040527f8d142cdd000000000000000000000000000000000000000000000000000000007bffffffffffffffffffffffffffffffffffffffffffffffffffffffff19166020820180517bffffffffffffffffffffffffffffffffffffffffffffffffffffffff83818316178352505050506200083160201b60201c565b50505050565b6001816000016000828254019250508190555050565b60008151905060006a636f6e736f6c652e6c6f679050602083016000808483855afa5050505050565b828054620008689062000ebb565b90600052602060002090601f0160209004810192826200088c5760008555620008d8565b82601f10620008a757805160ff1916838001178555620008d8565b82800160010185558215620008d8579182015b82811115620008d7578251825591602001919060010190620008ba565b5b509050620008e79190620008eb565b5090565b5b8082111562000906576000816000905550600101620008ec565b5090565b6000620009216200091b8462000d6e565b62000d45565b905080838252602082019050828560208602820111156200094157600080fd5b60005b858110156200099057815167ffffffffffffffff8111156200096557600080fd5b80860162000974898262000aae565b8552602085019450602084019350505060018101905062000944565b5050509392505050565b6000620009b1620009ab8462000d9d565b62000d45565b90508083825260208201905082856020860282011115620009d157600080fd5b60005b8581101562000a055781620009ea888262000adb565b845260208401935060208301925050600181019050620009d4565b5050509392505050565b600062000a2662000a208462000dcc565b62000d45565b90508281526020810184848401111562000a3f57600080fd5b62000a4c84828562000e85565b509392505050565b600082601f83011262000a6657600080fd5b815162000a788482602086016200090a565b91505092915050565b600082601f83011262000a9357600080fd5b815162000aa58482602086016200099a565b91505092915050565b600082601f83011262000ac057600080fd5b815162000ad284826020860162000a0f565b91505092915050565b60008151905062000aec8162000fc5565b92915050565b6000806000806000806000806000806101408b8d03121562000b1357600080fd5b60008b015167ffffffffffffffff81111562000b2e57600080fd5b62000b3c8d828e0162000a54565b9a505060208b015167ffffffffffffffff81111562000b5a57600080fd5b62000b688d828e0162000a54565b99505060408b015167ffffffffffffffff81111562000b8657600080fd5b62000b948d828e0162000a81565b98505060608b015167ffffffffffffffff81111562000bb257600080fd5b62000bc08d828e0162000a81565b97505060808b015167ffffffffffffffff81111562000bde57600080fd5b62000bec8d828e0162000a81565b96505060a08b015167ffffffffffffffff81111562000c0a57600080fd5b62000c188d828e0162000aae565b95505060c08b015167ffffffffffffffff81111562000c3657600080fd5b62000c448d828e0162000aae565b94505060e062000c578d828e0162000adb565b93505061010062000c6b8d828e0162000adb565b92505061012062000c7f8d828e0162000adb565b9150509295989b9194979a5092959850565b600062000c9e8262000e02565b62000caa818562000e0d565b935062000cbc81856020860162000e85565b62000cc78162000fb4565b840191505092915050565b62000cdd8162000e7b565b82525050565b6000608082019050818103600083015262000cff818762000c91565b9050818103602083015262000d15818662000c91565b905062000d26604083018562000cd2565b818103606083015262000d3a818462000c91565b905095945050505050565b600062000d5162000d64565b905062000d5f828262000ef1565b919050565b6000604051905090565b600067ffffffffffffffff82111562000d8c5762000d8b62000f85565b5b602082029050602081019050919050565b600067ffffffffffffffff82111562000dbb5762000dba62000f85565b5b602082029050602081019050919050565b600067ffffffffffffffff82111562000dea5762000de962000f85565b5b62000df58262000fb4565b9050602081019050919050565b600081519050919050565b600082825260208201905092915050565b600062000e2b8262000e7b565b915062000e388362000e7b565b9250827fffffffffffffffffffffffffffffffffffffffffffffffffffffffffffffffff0382111562000e705762000e6f62000f27565b5b828201905092915050565b6000819050919050565b60005b8381101562000ea557808201518184015260208101905062000e88565b8381111562000eb5576000848401525b50505050565b6000600282049050600182168062000ed457607f821691505b6020821081141562000eeb5762000eea62000f56565b5b50919050565b62000efc8262000fb4565b810181811067ffffffffffffffff8211171562000f1e5762000f1d62000f85565b5b80604052505050565b7f4e487b7100000000000000000000000000000000000000000000000000000000600052601160045260246000fd5b7f4e487b7100000000000000000000000000000000000000000000000000000000600052602260045260246000fd5b7f4e487b7100000000000000000000000000000000000000000000000000000000600052604160045260246000fd5b6000601f19601f8301169050919050565b62000fd08162000e7b565b811462000fdc57600080fd5b50565b614a898062000fef6000396000f3fe608060405234801561001057600080fd5b50600436106101375760003560e01c806384ce9e12116100b8578063b88d4fde1161007c578063b88d4fde1461036d578063b953084e14610389578063c87b56dd146103a7578063d4f24c5b146103d7578063e985e9c5146103e1578063f8b81ef71461041157610137565b806384ce9e12146102bc57806395d89b41146102da57806398da4c95146102f8578063a22cb4651461032e578063a9c326791461034a57610137565b806323b872dd116100ff57806323b872dd146101f457806342842e0e146102105780636352211e1461022c57806370a082311461025c5780637df124a11461028c57610137565b806301ffc9a71461013c5780630665f9611461016c57806306fdde031461018a578063081812fc146101a8578063095ea7b3146101d8575b600080fd5b61015660048036038101906101519190613246565b61042d565b6040516101639190613ad9565b60405180910390f35b61017461050f565b6040516101819190613e85565b60405180910390f35b610192610675565b60405161019f9190613af4565b60405180910390f35b6101c260048036038101906101bd9190613298565b610707565b6040516101cf9190613a19565b60405180910390f35b6101f260048036038101906101ed919061320a565b61074d565b005b61020e60048036038101906102099190613104565b610865565b005b61022a60048036038101906102259190613104565b6108c5565b005b61024660048036038101906102419190613298565b6108e5565b6040516102539190613a19565b60405180910390f35b6102766004803603810190610271919061309f565b610997565b6040516102839190613ec9565b60405180910390f35b6102a660048036038101906102a1919061309f565b610a4f565b6040516102b39190613ec9565b60405180910390f35b6102c4610a67565b6040516102d19190613ea7565b60405180910390f35b6102e2610c49565b6040516102ef9190613af4565b60405180910390f35b610312600480360381019061030d9190613298565b610cdb565b6040516103259796959493929190613ee4565b60405180910390f35b610348600480360381019061034391906131ce565b610e2d565b005b610352610e43565b60405161036496959493929190613c08565b60405180910390f35b61038760048036038101906103829190613153565b610f7d565b005b610391610fdf565b60405161039e9190613ab7565b60405180910390f35b6103c160048036038101906103bc9190613298565b611194565b6040516103ce9190613af4565b60405180910390f35b6103df6113cd565b005b6103fb60048036038101906103f691906130c8565b611841565b6040516104089190613ad9565b60405180910390f35b61042b60048036038101906104269190613298565b6118d5565b005b60007f80ac58cd000000000000000000000000000000000000000000000000000000007bffffffffffffffffffffffffffffffffffffffffffffffffffffffff1916827bffffffffffffffffffffffffffffffffffffffffffffffffffffffff191614806104f857507f5b5e139f000000000000000000000000000000000000000000000000000000007bffffffffffffffffffffffffffffffffffffffffffffffffffffffff1916827bffffffffffffffffffffffffffffffffffffffffffffffffffffffff1916145b80610508575061050782611ddc565b5b9050919050565b610517612eb8565b600a6040518060c00160405290816000820180546105349061420f565b80601f01602080910402602001604051908101604052809291908181526020018280546105609061420f565b80156105ad5780601f10610582576101008083540402835291602001916105ad565b820191906000526020600020905b81548152906001019060200180831161059057829003601f168201915b505050505081526020016001820180546105c69061420f565b80601f01602080910402602001604051908101604052809291908181526020018280546105f29061420f565b801561063f5780601f106106145761010080835404028352916020019161063f565b820191906000526020600020905b81548152906001019060200180831161062257829003601f168201915b50505050508152602001600282015481526020016003820154815260200160048201548152602001600582015481525050905090565b6060600080546106849061420f565b80601f01602080910402602001604051908101604052809291908181526020018280546106b09061420f565b80156106fd5780601f106106d2576101008083540402835291602001916106fd565b820191906000526020600020905b8154815290600101906020018083116106e057829003601f168201915b5050505050905090565b600061071282611e46565b6004600083815260200190815260200160002060009054906101000a900473ffffffffffffffffffffffffffffffffffffffff169050919050565b6000610758826108e5565b90508073ffffffffffffffffffffffffffffffffffffffff168373ffffffffffffffffffffffffffffffffffffffff1614156107c9576040517f08c379a00000000000000000000000000000000000000000000000000000000081526004016107c090613e25565b60405180910390fd5b8073ffffffffffffffffffffffffffffffffffffffff166107e8611e91565b73ffffffffffffffffffffffffffffffffffffffff161480610817575061081681610811611e91565b611841565b5b610856576040517f08c379a000000000000000000000000000000000000000000000000000000000815260040161084d90613dc5565b60405180910390fd5b6108608383611e99565b505050565b610876610870611e91565b82611f52565b6108b5576040517f08c379a00000000000000000000000000000000000000000000000000000000081526004016108ac90613e65565b60405180910390fd5b6108c0838383611fe7565b505050565b6108e083838360405180602001604052806000815250610f7d565b505050565b6000806002600084815260200190815260200160002060009054906101000a900473ffffffffffffffffffffffffffffffffffffffff169050600073ffffffffffffffffffffffffffffffffffffffff168173ffffffffffffffffffffffffffffffffffffffff16141561098e576040517f08c379a000000000000000000000000000000000000000000000000000000000815260040161098590613e05565b60405180910390fd5b80915050919050565b60008073ffffffffffffffffffffffffffffffffffffffff168273ffffffffffffffffffffffffffffffffffffffff161415610a08576040517f08c379a00000000000000000000000000000000000000000000000000000000081526004016109ff90613da5565b60405180910390fd5b600360008373ffffffffffffffffffffffffffffffffffffffff1673ffffffffffffffffffffffffffffffffffffffff168152602001908152602001600020549050919050565b60096020528060005260406000206000915090505481565b610a6f612eee565b6000600960003373ffffffffffffffffffffffffffffffffffffffff1673ffffffffffffffffffffffffffffffffffffffff1681526020019081526020016000205490506000811115610c3857600860008281526020019081526020016000206040518060e001604052908160008201548152602001600182018054610af49061420f565b80601f0160208091040260200160405190810160405280929190818152602001828054610b209061420f565b8015610b6d5780601f10610b4257610100808354040283529160200191610b6d565b820191906000526020600020905b815481529060010190602001808311610b5057829003601f168201915b50505050508152602001600282018054610b869061420f565b80601f0160208091040260200160405190810160405280929190818152602001828054610bb29061420f565b8015610bff5780601f10610bd457610100808354040283529160200191610bff565b820191906000526020600020905b815481529060010190602001808311610be257829003601f168201915b50505050508152602001600382015481526020016004820154815260200160058201548152602001600682015481525050915050610c46565b610c40612eee565b80925050505b90565b606060018054610c589061420f565b80601f0160208091040260200160405190810160405280929190818152602001828054610c849061420f565b8015610cd15780601f10610ca657610100808354040283529160200191610cd1565b820191906000526020600020905b815481529060010190602001808311610cb457829003601f168201915b5050505050905090565b6008602052806000526040600020600091509050806000015490806001018054610d049061420f565b80601f0160208091040260200160405190810160405280929190818152602001828054610d309061420f565b8015610d7d5780601f10610d5257610100808354040283529160200191610d7d565b820191906000526020600020905b815481529060010190602001808311610d6057829003601f168201915b505050505090806002018054610d929061420f565b80601f0160208091040260200160405190810160405280929190818152602001828054610dbe9061420f565b8015610e0b5780601f10610de057610100808354040283529160200191610e0b565b820191906000526020600020905b815481529060010190602001808311610dee57829003601f168201915b5050505050908060030154908060040154908060050154908060060154905087565b610e3f610e38611e91565b838361224e565b5050565b600a806000018054610e549061420f565b80601f0160208091040260200160405190810160405280929190818152602001828054610e809061420f565b8015610ecd5780601f10610ea257610100808354040283529160200191610ecd565b820191906000526020600020905b815481529060010190602001808311610eb057829003601f168201915b505050505090806001018054610ee29061420f565b80601f0160208091040260200160405190810160405280929190818152602001828054610f0e9061420f565b8015610f5b5780601f10610f3057610100808354040283529160200191610f5b565b820191906000526020600020905b815481529060010190602001808311610f3e57829003601f168201915b5050505050908060020154908060030154908060040154908060050154905086565b610f8e610f88611e91565b83611f52565b610fcd576040517f08c379a0000000000000000000000000000000000000000000000000000000008152600401610fc490613e65565b60405180910390fd5b610fd9848484846123bb565b50505050565b60606007805480602002602001604051908101604052809291908181526020016000905b8282101561118b57838290600052602060002090600702016040518060e0016040529081600082015481526020016001820180546110409061420f565b80601f016020809104026020016040519081016040528092919081815260200182805461106c9061420f565b80156110b95780601f1061108e576101008083540402835291602001916110b9565b820191906000526020600020905b81548152906001019060200180831161109c57829003601f168201915b505050505081526020016002820180546110d29061420f565b80601f01602080910402602001604051908101604052809291908181526020018280546110fe9061420f565b801561114b5780601f106111205761010080835404028352916020019161114b565b820191906000526020600020905b81548152906001019060200180831161112e57829003601f168201915b5050505050815260200160038201548152602001600482015481526020016005820154815260200160068201548152505081526020019060010190611003565b50505050905090565b60606000600860008481526020019081526020016000206040518060e0016040529081600082015481526020016001820180546111d09061420f565b80601f01602080910402602001604051908101604052809291908181526020018280546111fc9061420f565b80156112495780601f1061121e57610100808354040283529160200191611249565b820191906000526020600020905b81548152906001019060200180831161122c57829003601f168201915b505050505081526020016002820180546112629061420f565b80601f016020809104026020016040519081016040528092919081815260200182805461128e9061420f565b80156112db5780601f106112b0576101008083540402835291602001916112db565b820191906000526020600020905b8154815290600101906020018083116112be57829003601f168201915b505050505081526020016003820154815260200160048201548152602001600582015481526020016006820154815250509050600061131d8260600151612417565b9050600061132e8360800151612417565b9050600061133f8460a00151612417565b905060006113508560c00151612417565b9050600061139886602001516113658a612417565b886040015188888888604051602001611384979695949392919061393a565b6040516020818303038152906040526125c4565b90506000816040516020016113ad91906139f7565b604051602081830303815290604052905080975050505050505050919050565b6000600960003373ffffffffffffffffffffffffffffffffffffffff1673ffffffffffffffffffffffffffffffffffffffff16815260200190815260200160002054905060006008600083815260200190815260200160002090506114e06040518060600160405280603681526020016149b0603691398260010180546114539061420f565b80601f016020809104026020016040519081016040528092919081815260200182805461147f9061420f565b80156114cc5780601f106114a1576101008083540402835291602001916114cc565b820191906000526020600020905b8154815290600101906020018083116114af57829003601f168201915b505050505083600301548460050154612782565b6115b86040518060400160405280601b81526020017f426f73732025732068617320257320485020616e642025732041440000000000815250600a60000180546115299061420f565b80601f01602080910402602001604051908101604052809291908181526020018280546115559061420f565b80156115a25780601f10611577576101008083540402835291602001916115a2565b820191906000526020600020905b81548152906001019060200180831161158557829003601f168201915b5050505050600a60020154600a60040154612782565b60008160030154116115ff576040517f08c379a00000000000000000000000000000000000000000000000000000000081526004016115f690613e45565b60405180910390fd5b6000600a6002015411611647576040517f08c379a000000000000000000000000000000000000000000000000000000000815260040161163e90613d85565b60405180910390fd5b8060050154600a600201541015611668576000600a60020181905550611697565b600a60050154816005015461167d9190614125565b600a6002015461168d9190614125565b600a600201819055505b600a60040154816003015410156116b757600081600301819055506116e4565b8060060154600a600401546116cc9190614125565b81600301546116db9190614125565b81600301819055505b6117286040518060400160405280602081526020017f506c617965722061747461636b65642e204e657720626f73732068703a202573815250600a60020154612824565b6117f96040518060400160405280601e81526020017f25732061747461636b65642e204e657720706c617965722068703a2025730000815250600a60000180546117719061420f565b80601f016020809104026020016040519081016040528092919081815260200182805461179d9061420f565b80156117ea5780601f106117bf576101008083540402835291602001916117ea565b820191906000526020600020905b8154815290600101906020018083116117cd57829003601f168201915b505050505083600301546128c0565b7f32bd565ee3f2cb5ddd742bbecd6048d3e9abe90b3827a40c2b72d232e71e3c9d33600a60020154836003015460405161183593929190613a80565b60405180910390a15050565b6000600560008473ffffffffffffffffffffffffffffffffffffffff1673ffffffffffffffffffffffffffffffffffffffff16815260200190815260200160002060008373ffffffffffffffffffffffffffffffffffffffff1673ffffffffffffffffffffffffffffffffffffffff16815260200190815260200160002060009054906101000a900460ff16905092915050565b60006118e1600661295f565b90506118ed338261296d565b6040518060e0016040528083815260200160078481548110611938577f4e487b7100000000000000000000000000000000000000000000000000000000600052603260045260246000fd5b906000526020600020906007020160010180546119549061420f565b80601f01602080910402602001604051908101604052809291908181526020018280546119809061420f565b80156119cd5780601f106119a2576101008083540402835291602001916119cd565b820191906000526020600020905b8154815290600101906020018083116119b057829003601f168201915b5050505050815260200160078481548110611a11577f4e487b7100000000000000000000000000000000000000000000000000000000600052603260045260246000fd5b90600052602060002090600702016002018054611a2d9061420f565b80601f0160208091040260200160405190810160405280929190818152602001828054611a599061420f565b8015611aa65780601f10611a7b57610100808354040283529160200191611aa6565b820191906000526020600020905b815481529060010190602001808311611a8957829003601f168201915b5050505050815260200160078481548110611aea577f4e487b7100000000000000000000000000000000000000000000000000000000600052603260045260246000fd5b906000526020600020906007020160030154815260200160078481548110611b3b577f4e487b7100000000000000000000000000000000000000000000000000000000600052603260045260246000fd5b906000526020600020906007020160040154815260200160078481548110611b8c577f4e487b7100000000000000000000000000000000000000000000000000000000600052603260045260246000fd5b906000526020600020906007020160050154815260200160078481548110611bdd577f4e487b7100000000000000000000000000000000000000000000000000000000600052603260045260246000fd5b90600052602060002090600702016006015481525060086000838152602001908152602001600020600082015181600001556020820151816001019080519060200190611c2b929190612f2b565b506040820151816002019080519060200190611c48929190612f2b565b50606082015181600301556080820151816004015560a0820151816005015560c08201518160060155905050611c976040518060600160405280602e8152602001614a26602e9139828461298b565b80600960003373ffffffffffffffffffffffffffffffffffffffff1673ffffffffffffffffffffffffffffffffffffffff16815260200190815260200160002081905550611ce56006611dc6565b7f4bc303fd457a97b4691b9af582ce71868a3d258638c8d4f8c60988a0f0bfb8cd338284604051611d1893929190613a80565b60405180910390a15050565b611dc084848484604051602401611d3e9493929190613b5b565b6040516020818303038152906040527f8d142cdd000000000000000000000000000000000000000000000000000000007bffffffffffffffffffffffffffffffffffffffffffffffffffffffff19166020820180517bffffffffffffffffffffffffffffffffffffffffffffffffffffffff8381831617835250505050612a2a565b50505050565b6001816000016000828254019250508190555050565b60007f01ffc9a7000000000000000000000000000000000000000000000000000000007bffffffffffffffffffffffffffffffffffffffffffffffffffffffff1916827bffffffffffffffffffffffffffffffffffffffffffffffffffffffff1916149050919050565b611e4f81612a53565b611e8e576040517f08c379a0000000000000000000000000000000000000000000000000000000008152600401611e8590613e05565b60405180910390fd5b50565b600033905090565b816004600083815260200190815260200160002060006101000a81548173ffffffffffffffffffffffffffffffffffffffff021916908373ffffffffffffffffffffffffffffffffffffffff160217905550808273ffffffffffffffffffffffffffffffffffffffff16611f0c836108e5565b73ffffffffffffffffffffffffffffffffffffffff167f8c5be1e5ebec7d5bd14f71427d1e84f3dd0314c0f7b2291e5b200ac8c7c3b92560405160405180910390a45050565b600080611f5e836108e5565b90508073ffffffffffffffffffffffffffffffffffffffff168473ffffffffffffffffffffffffffffffffffffffff161480611fa05750611f9f8185611841565b5b80611fde57508373ffffffffffffffffffffffffffffffffffffffff16611fc684610707565b73ffffffffffffffffffffffffffffffffffffffff16145b91505092915050565b8273ffffffffffffffffffffffffffffffffffffffff16612007826108e5565b73ffffffffffffffffffffffffffffffffffffffff161461205d576040517f08c379a000000000000000000000000000000000000000000000000000000000815260040161205490613d05565b60405180910390fd5b600073ffffffffffffffffffffffffffffffffffffffff168273ffffffffffffffffffffffffffffffffffffffff1614156120cd576040517f08c379a00000000000000000000000000000000000000000000000000000000081526004016120c490613d45565b60405180910390fd5b6120d8838383612abf565b6120e3600082611e99565b6001600360008573ffffffffffffffffffffffffffffffffffffffff1673ffffffffffffffffffffffffffffffffffffffff16815260200190815260200160002060008282546121339190614125565b925050819055506001600360008473ffffffffffffffffffffffffffffffffffffffff1673ffffffffffffffffffffffffffffffffffffffff168152602001908152602001600020600082825461218a9190614044565b92505081905550816002600083815260200190815260200160002060006101000a81548173ffffffffffffffffffffffffffffffffffffffff021916908373ffffffffffffffffffffffffffffffffffffffff160217905550808273ffffffffffffffffffffffffffffffffffffffff168473ffffffffffffffffffffffffffffffffffffffff167fddf252ad1be2c89b69c2b068fc378daa952ba7f163c4a11628f55a4df523b3ef60405160405180910390a4612249838383612ac4565b505050565b8173ffffffffffffffffffffffffffffffffffffffff168373ffffffffffffffffffffffffffffffffffffffff1614156122bd576040517f08c379a00000000000000000000000000000000000000000000000000000000081526004016122b490613d65565b60405180910390fd5b80600560008573ffffffffffffffffffffffffffffffffffffffff1673ffffffffffffffffffffffffffffffffffffffff16815260200190815260200160002060008473ffffffffffffffffffffffffffffffffffffffff1673ffffffffffffffffffffffffffffffffffffffff16815260200190815260200160002060006101000a81548160ff0219169083151502179055508173ffffffffffffffffffffffffffffffffffffffff168373ffffffffffffffffffffffffffffffffffffffff167f17307eab39ab6107e8899845ad3d59bd9653f200f220920489ca2b5937696c31836040516123ae9190613ad9565b60405180910390a3505050565b6123c6848484611fe7565b6123d284848484612ac9565b612411576040517f08c379a000000000000000000000000000000000000000000000000000000000815260040161240890613ce5565b60405180910390fd5b50505050565b6060600082141561245f576040518060400160405280600181526020017f300000000000000000000000000000000000000000000000000000000000000081525090506125bf565b600082905060005b6000821461249157808061247a90614272565b915050600a8261248a919061409a565b9150612467565b60008167ffffffffffffffff8111156124d3577f4e487b7100000000000000000000000000000000000000000000000000000000600052604160045260246000fd5b6040519080825280601f01601f1916602001820160405280156125055781602001600182028036833780820191505090505b5090505b600085146125b85760018261251e9190614125565b9150600a8561252d91906142bb565b60306125399190614044565b60f81b818381518110612575577f4e487b7100000000000000000000000000000000000000000000000000000000600052603260045260246000fd5b60200101907effffffffffffffffffffffffffffffffffffffffffffffffffffffffffffff1916908160001a905350600a856125b1919061409a565b9450612509565b8093505050505b919050565b606060008251905060008114156125ed576040518060200160405280600081525091505061277d565b600060036002836125fe9190614044565b612608919061409a565b600461261491906140cb565b905060006020826126259190614044565b67ffffffffffffffff811115612664577f4e487b7100000000000000000000000000000000000000000000000000000000600052604160045260246000fd5b6040519080825280601f01601f1916602001820160405280156126965781602001600182028036833780820191505090505b50905060006040518060600160405280604081526020016149e6604091399050600181016020830160005b8681101561273a5760038101905062ffffff818a015116603f8160121c168401518060081b905060ff603f83600c1c1686015116810190508060081b905060ff603f8360061c1686015116810190508060081b905060ff603f831686015116810190508060e01b905080845260048401935050506126c1565b50600386066001811461275457600281146127645761276f565b613d3d60f01b600283035261276f565b603d60f81b60018303525b508484525050819450505050505b919050565b61281e8484848460405160240161279c9493929190613bb5565b6040516020818303038152906040527fd5cf17d0000000000000000000000000000000000000000000000000000000007bffffffffffffffffffffffffffffffffffffffffffffffffffffffff19166020820180517bffffffffffffffffffffffffffffffffffffffffffffffffffffffff8381831617835250505050612a2a565b50505050565b6128bc828260405160240161283a929190613c77565b6040516020818303038152906040527f9710a9d0000000000000000000000000000000000000000000000000000000007bffffffffffffffffffffffffffffffffffffffffffffffffffffffff19166020820180517bffffffffffffffffffffffffffffffffffffffffffffffffffffffff8381831617835250505050612a2a565b5050565b61295a8383836040516024016128d893929190613b16565b6040516020818303038152906040527ff362ca59000000000000000000000000000000000000000000000000000000007bffffffffffffffffffffffffffffffffffffffffffffffffffffffff19166020820180517bffffffffffffffffffffffffffffffffffffffffffffffffffffffff8381831617835250505050612a2a565b505050565b600081600001549050919050565b612987828260405180602001604052806000815250612c60565b5050565b612a258383836040516024016129a393929190613ca7565b6040516020818303038152906040527f969cdd03000000000000000000000000000000000000000000000000000000007bffffffffffffffffffffffffffffffffffffffffffffffffffffffff19166020820180517bffffffffffffffffffffffffffffffffffffffffffffffffffffffff8381831617835250505050612a2a565b505050565b60008151905060006a636f6e736f6c652e6c6f679050602083016000808483855afa5050505050565b60008073ffffffffffffffffffffffffffffffffffffffff166002600084815260200190815260200160002060009054906101000a900473ffffffffffffffffffffffffffffffffffffffff1673ffffffffffffffffffffffffffffffffffffffff1614159050919050565b505050565b505050565b6000612aea8473ffffffffffffffffffffffffffffffffffffffff16612cbb565b15612c53578373ffffffffffffffffffffffffffffffffffffffff1663150b7a02612b13611e91565b8786866040518563ffffffff1660e01b8152600401612b359493929190613a34565b602060405180830381600087803b158015612b4f57600080fd5b505af1925050508015612b8057506040513d601f19601f82011682018060405250810190612b7d919061326f565b60015b612c03573d8060008114612bb0576040519150601f19603f3d011682016040523d82523d6000602084013e612bb5565b606091505b50600081511415612bfb576040517f08c379a0000000000000000000000000000000000000000000000000000000008152600401612bf290613ce5565b60405180910390fd5b805181602001fd5b63150b7a0260e01b7bffffffffffffffffffffffffffffffffffffffffffffffffffffffff1916817bffffffffffffffffffffffffffffffffffffffffffffffffffffffff191614915050612c58565b600190505b949350505050565b612c6a8383612cde565b612c776000848484612ac9565b612cb6576040517f08c379a0000000000000000000000000000000000000000000000000000000008152600401612cad90613ce5565b60405180910390fd5b505050565b6000808273ffffffffffffffffffffffffffffffffffffffff163b119050919050565b600073ffffffffffffffffffffffffffffffffffffffff168273ffffffffffffffffffffffffffffffffffffffff161415612d4e576040517f08c379a0000000000000000000000000000000000000000000000000000000008152600401612d4590613de5565b60405180910390fd5b612d5781612a53565b15612d97576040517f08c379a0000000000000000000000000000000000000000000000000000000008152600401612d8e90613d25565b60405180910390fd5b612da360008383612abf565b6001600360008473ffffffffffffffffffffffffffffffffffffffff1673ffffffffffffffffffffffffffffffffffffffff1681526020019081526020016000206000828254612df39190614044565b92505081905550816002600083815260200190815260200160002060006101000a81548173ffffffffffffffffffffffffffffffffffffffff021916908373ffffffffffffffffffffffffffffffffffffffff160217905550808273ffffffffffffffffffffffffffffffffffffffff16600073ffffffffffffffffffffffffffffffffffffffff167fddf252ad1be2c89b69c2b068fc378daa952ba7f163c4a11628f55a4df523b3ef60405160405180910390a4612eb460008383612ac4565b5050565b6040518060c001604052806060815260200160608152602001600081526020016000815260200160008152602001600081525090565b6040518060e00160405280600081526020016060815260200160608152602001600081526020016000815260200160008152602001600081525090565b828054612f379061420f565b90600052602060002090601f016020900481019282612f595760008555612fa0565b82601f10612f7257805160ff1916838001178555612fa0565b82800160010185558215612fa0579182015b82811115612f9f578251825591602001919060010190612f84565b5b509050612fad9190612fb1565b5090565b5b80821115612fca576000816000905550600101612fb2565b5090565b6000612fe1612fdc84613f86565b613f61565b905082815260208101848484011115612ff957600080fd5b6130048482856141cd565b509392505050565b60008135905061301b81614953565b92915050565b6000813590506130308161496a565b92915050565b60008135905061304581614981565b92915050565b60008151905061305a81614981565b92915050565b600082601f83011261307157600080fd5b8135613081848260208601612fce565b91505092915050565b60008135905061309981614998565b92915050565b6000602082840312156130b157600080fd5b60006130bf8482850161300c565b91505092915050565b600080604083850312156130db57600080fd5b60006130e98582860161300c565b92505060206130fa8582860161300c565b9150509250929050565b60008060006060848603121561311957600080fd5b60006131278682870161300c565b93505060206131388682870161300c565b92505060406131498682870161308a565b9150509250925092565b6000806000806080858703121561316957600080fd5b60006131778782880161300c565b94505060206131888782880161300c565b93505060406131998782880161308a565b925050606085013567ffffffffffffffff8111156131b657600080fd5b6131c287828801613060565b91505092959194509250565b600080604083850312156131e157600080fd5b60006131ef8582860161300c565b925050602061320085828601613021565b9150509250929050565b6000806040838503121561321d57600080fd5b600061322b8582860161300c565b925050602061323c8582860161308a565b9150509250929050565b60006020828403121561325857600080fd5b600061326684828501613036565b91505092915050565b60006020828403121561328157600080fd5b600061328f8482850161304b565b91505092915050565b6000602082840312156132aa57600080fd5b60006132b88482850161308a565b91505092915050565b60006132cd83836137d6565b905092915050565b6132de81614159565b82525050565b60006132ef82613fc7565b6132f98185613ff5565b93508360208202850161330b85613fb7565b8060005b85811015613347578484038952815161332885826132c1565b945061333383613fe8565b925060208a0199505060018101905061330f565b50829750879550505050505092915050565b6133628161416b565b82525050565b600061337382613fd2565b61337d8185614006565b935061338d8185602086016141dc565b613396816143a8565b840191505092915050565b60006133ac82613fdd565b6133b68185614017565b93506133c68185602086016141dc565b6133cf816143a8565b840191505092915050565b60006133e582613fdd565b6133ef8185614028565b93506133ff8185602086016141dc565b613408816143a8565b840191505092915050565b600061341e82613fdd565b6134288185614039565b93506134388185602086016141dc565b80840191505092915050565b6000613451600b83614039565b915061345c826143b9565b600b82019050919050565b6000613474603283614028565b915061347f826143e2565b604082019050919050565b6000613497602583614028565b91506134a282614431565b604082019050919050565b60006134ba601c83614028565b91506134c582614480565b602082019050919050565b60006134dd600e83614039565b91506134e8826144a9565b600e82019050919050565b6000613500602483614028565b915061350b826144d2565b604082019050919050565b6000613523601983614028565b915061352e82614521565b602082019050919050565b6000613546602283614028565b91506135518261454a565b604082019050919050565b6000613569602983614028565b915061357482614599565b604082019050919050565b600061358c600483614039565b9150613597826145e8565b600482019050919050565b60006135af603e83614028565b91506135ba82614611565b604082019050919050565b60006135d2602083614028565b91506135dd82614660565b602082019050919050565b60006135f5600a83614039565b915061360082614689565b600a82019050919050565b6000613618602b83614039565b9150613623826146b2565b602b82019050919050565b600061363b601883614028565b915061364682614701565b602082019050919050565b600061365e602183614028565b91506136698261472a565b604082019050919050565b6000613681601d83614039565b915061368c82614779565b601d82019050919050565b60006136a4602983614028565b91506136af826147a2565b604082019050919050565b60006136c7603d83614039565b91506136d2826147f1565b603d82019050919050565b60006136ea602d83614039565b91506136f582614840565b602d82019050919050565b600061370d602e83614028565b91506137188261488f565b604082019050919050565b6000613730605083614039565b915061373b826148de565b605082019050919050565b600060c083016000830151848203600086015261376382826133a1565b9150506020830151848203602086015261377d82826133a1565b9150506040830151613792604086018261391c565b5060608301516137a5606086018261391c565b5060808301516137b8608086018261391c565b5060a08301516137cb60a086018261391c565b508091505092915050565b600060e0830160008301516137ee600086018261391c565b506020830151848203602086015261380682826133a1565b9150506040830151848203604086015261382082826133a1565b9150506060830151613835606086018261391c565b506080830151613848608086018261391c565b5060a083015161385b60a086018261391c565b5060c083015161386e60c086018261391c565b508091505092915050565b600060e083016000830151613891600086018261391c565b50602083015184820360208601526138a982826133a1565b915050604083015184820360408601526138c382826133a1565b91505060608301516138d8606086018261391c565b5060808301516138eb608086018261391c565b5060a08301516138fe60a086018261391c565b5060c083015161391160c086018261391c565b508091505092915050565b613925816141c3565b82525050565b613934816141c3565b82525050565b6000613945826135e8565b9150613951828a613413565b915061395c82613444565b91506139688289613413565b915061397382613723565b915061397f8288613413565b915061398a826136ba565b91506139968287613413565b91506139a1826134d0565b91506139ad8286613413565b91506139b8826136dd565b91506139c48285613413565b91506139cf8261360b565b91506139db8284613413565b91506139e68261357f565b915081905098975050505050505050565b6000613a0282613674565b9150613a0e8284613413565b915081905092915050565b6000602082019050613a2e60008301846132d5565b92915050565b6000608082019050613a4960008301876132d5565b613a5660208301866132d5565b613a63604083018561392b565b8181036060830152613a758184613368565b905095945050505050565b6000606082019050613a9560008301866132d5565b613aa2602083018561392b565b613aaf604083018461392b565b949350505050565b60006020820190508181036000830152613ad181846132e4565b905092915050565b6000602082019050613aee6000830184613359565b92915050565b60006020820190508181036000830152613b0e81846133da565b905092915050565b60006060820190508181036000830152613b3081866133da565b90508181036020830152613b4481856133da565b9050613b53604083018461392b565b949350505050565b60006080820190508181036000830152613b7581876133da565b90508181036020830152613b8981866133da565b9050613b98604083018561392b565b8181036060830152613baa81846133da565b905095945050505050565b60006080820190508181036000830152613bcf81876133da565b90508181036020830152613be381866133da565b9050613bf2604083018561392b565b613bff606083018461392b565b95945050505050565b600060c0820190508181036000830152613c2281896133da565b90508181036020830152613c3681886133da565b9050613c45604083018761392b565b613c52606083018661392b565b613c5f608083018561392b565b613c6c60a083018461392b565b979650505050505050565b60006040820190508181036000830152613c9181856133da565b9050613ca0602083018461392b565b9392505050565b60006060820190508181036000830152613cc181866133da565b9050613cd0602083018561392b565b613cdd604083018461392b565b949350505050565b60006020820190508181036000830152613cfe81613467565b9050919050565b60006020820190508181036000830152613d1e8161348a565b9050919050565b60006020820190508181036000830152613d3e816134ad565b9050919050565b60006020820190508181036000830152613d5e816134f3565b9050919050565b60006020820190508181036000830152613d7e81613516565b9050919050565b60006020820190508181036000830152613d9e81613539565b9050919050565b60006020820190508181036000830152613dbe8161355c565b9050919050565b60006020820190508181036000830152613dde816135a2565b9050919050565b60006020820190508181036000830152613dfe816135c5565b9050919050565b60006020820190508181036000830152613e1e8161362e565b9050919050565b60006020820190508181036000830152613e3e81613651565b9050919050565b60006020820190508181036000830152613e5e81613697565b9050919050565b60006020820190508181036000830152613e7e81613700565b9050919050565b60006020820190508181036000830152613e9f8184613746565b905092915050565b60006020820190508181036000830152613ec18184613879565b905092915050565b6000602082019050613ede600083018461392b565b92915050565b600060e082019050613ef9600083018a61392b565b8181036020830152613f0b81896133da565b90508181036040830152613f1f81886133da565b9050613f2e606083018761392b565b613f3b608083018661392b565b613f4860a083018561392b565b613f5560c083018461392b565b98975050505050505050565b6000613f6b613f7c565b9050613f778282614241565b919050565b6000604051905090565b600067ffffffffffffffff821115613fa157613fa0614379565b5b613faa826143a8565b9050602081019050919050565b6000819050602082019050919050565b600081519050919050565b600081519050919050565b600081519050919050565b6000602082019050919050565b600082825260208201905092915050565b600082825260208201905092915050565b600082825260208201905092915050565b600082825260208201905092915050565b600081905092915050565b600061404f826141c3565b915061405a836141c3565b9250827fffffffffffffffffffffffffffffffffffffffffffffffffffffffffffffffff0382111561408f5761408e6142ec565b5b828201905092915050565b60006140a5826141c3565b91506140b0836141c3565b9250826140c0576140bf61431b565b5b828204905092915050565b60006140d6826141c3565b91506140e1836141c3565b9250817fffffffffffffffffffffffffffffffffffffffffffffffffffffffffffffffff048311821515161561411a576141196142ec565b5b828202905092915050565b6000614130826141c3565b915061413b836141c3565b92508282101561414e5761414d6142ec565b5b828203905092915050565b6000614164826141a3565b9050919050565b60008115159050919050565b60007fffffffff0000000000000000000000000000000000000000000000000000000082169050919050565b600073ffffffffffffffffffffffffffffffffffffffff82169050919050565b6000819050919050565b82818337600083830152505050565b60005b838110156141fa5780820151818401526020810190506141df565b83811115614209576000848401525b50505050565b6000600282049050600182168061422757607f821691505b6020821081141561423b5761423a61434a565b5b50919050565b61424a826143a8565b810181811067ffffffffffffffff8211171561426957614268614379565b5b80604052505050565b600061427d826141c3565b91507fffffffffffffffffffffffffffffffffffffffffffffffffffffffffffffffff8214156142b0576142af6142ec565b5b600182019050919050565b60006142c6826141c3565b91506142d1836141c3565b9250826142e1576142e061431b565b5b828206905092915050565b7f4e487b7100000000000000000000000000000000000000000000000000000000600052601160045260246000fd5b7f4e487b7100000000000000000000000000000000000000000000000000000000600052601260045260246000fd5b7f4e487b7100000000000000000000000000000000000000000000000000000000600052602260045260246000fd5b7f4e487b7100000000000000000000000000000000000000000000000000000000600052604160045260246000fd5b6000601f19601f8301169050919050565b7f202d2d204e465420233a20000000000000000000000000000000000000000000600082015250565b7f4552433732313a207472616e7366657220746f206e6f6e20455243373231526560008201527f63656976657220696d706c656d656e7465720000000000000000000000000000602082015250565b7f4552433732313a207472616e736665722066726f6d20696e636f72726563742060008201527f6f776e6572000000000000000000000000000000000000000000000000000000602082015250565b7f4552433732313a20746f6b656e20616c7265616479206d696e74656400000000600082015250565b7f2c20226d61785f76616c7565223a000000000000000000000000000000000000600082015250565b7f4552433732313a207472616e7366657220746f20746865207a65726f2061646460008201527f7265737300000000000000000000000000000000000000000000000000000000602082015250565b7f4552433732313a20617070726f766520746f2063616c6c657200000000000000600082015250565b7f596f7527766520616c7265616479206465666561746564207468697320626f7360008201527f7321000000000000000000000000000000000000000000000000000000000000602082015250565b7f4552433732313a2061646472657373207a65726f206973206e6f74206120766160008201527f6c6964206f776e65720000000000000000000000000000000000000000000000602082015250565b7f7d205d7d00000000000000000000000000000000000000000000000000000000600082015250565b7f4552433732313a20617070726f76652063616c6c6572206973206e6f7420746f60008201527f6b656e206f776e6572206e6f7220617070726f76656420666f7220616c6c0000602082015250565b7f4552433732313a206d696e7420746f20746865207a65726f2061646472657373600082015250565b7f7b226e616d65223a202200000000000000000000000000000000000000000000600082015250565b7f7b202274726169745f74797065223a2022446566656e736520506f696e74732260008201527f2c202276616c7565223a20000000000000000000000000000000000000000000602082015250565b7f4552433732313a20696e76616c696420746f6b656e2049440000000000000000600082015250565b7f4552433732313a20617070726f76616c20746f2063757272656e74206f776e6560008201527f7200000000000000000000000000000000000000000000000000000000000000602082015250565b7f646174613a6170706c69636174696f6e2f6a736f6e3b6261736536342c000000600082015250565b7f596f752063616e27742061747461636b2e20596f75722063686172616374657260008201527f2069732064656164210000000000000000000000000000000000000000000000602082015250565b7f222c202261747472696275746573223a205b207b202274726169745f7479706560008201527f223a20224865616c746820506f696e7473222c202276616c7565223a20000000602082015250565b7f7d2c207b202274726169745f74797065223a202241747461636b2044616d616760008201527f65222c202276616c7565223a2000000000000000000000000000000000000000602082015250565b7f4552433732313a2063616c6c6572206973206e6f7420746f6b656e206f776e6560008201527f72206e6f7220617070726f766564000000000000000000000000000000000000602082015250565b7f222c20226465736372697074696f6e223a20225468697320697320616e204e4660008201527f542074686174206c6574732070656f706c6520706c617920696e20546865204760208201527f616d65222c2022696d616765223a202200000000000000000000000000000000604082015250565b61495c81614159565b811461496757600080fd5b50565b6149738161416b565b811461497e57600080fd5b50565b61498a81614177565b811461499557600080fd5b50565b6149a1816141c3565b81146149ac57600080fd5b5056fe0a506c6179657220772f206368617261637465722025732061747461636b696e672e2048617320257320485020616e642025732041444142434445464748494a4b4c4d4e4f505152535455565758595a6162636465666768696a6b6c6d6e6f707172737475767778797a303132333435363738392b2f4d696e746564204e465420772f20746f6b656e496420257320616e6420636861726163746572496e646578202573a26469706673582212204ad2e872d6b3cb0bfb1aae6176a7c729a802f03b0426c86a1a583d847ef5941c64736f6c63430008040033446f6e6520696e697469616c697a696e6720257320772f2048502025732c20696d67202573446f6e6520696e697469616c697a696e6720626f737320257320772f2048502025732c20696d67202573",
"linkReferences": {},
"deployedLinkReferences": {}
}